:020000040000FA
:100000000C945C000C946E000C946E000C946E00CA
:100010000C946E000C946E000C946E000C946E00A8
:100020000C946E000C946E000C946E000C946E0098
:100030000C946E000C946E000C946E000C946E0088
:100040000C94DB000C946E000C946E000C946E000B
:100050000C946E000C946E000C946E000C946E0068
:100060000C946E000C946E00000000080002010069
:100070000003040700000000000000000000000072
:10008000250028002B0000000000240027002A0083
:10009000040404040404040402020202020203032E
:1000A0000303030301020408102040800102040836
:1000B000102001020408102011241FBECFEFD8E049
:1000C000DEBFCDBF21E0A0E0B1E001C01D92A930AC
:1000D000B207E1F70E9425010C94CC100C940000AB
:1000E00090E0FC01EC55FF4F249180579F4FFC019D
:1000F0008491882399F090E0880F991FFC01EA57BA
:10010000FF4FA591B491FC01E458FF4F8591949164
:100110008FB7F894EC91E22BEC938FBF089590E0A9
:10012000FC01E859FF4F2491FC01EC55FF4F34913D
:10013000FC01E057FF4FE491EE23C9F0222339F090
:10014000233001F1A8F4213019F1223029F1F0E037
:10015000EE0FFF1FE458FF4FA591B4918FB7F894AD
:10016000EC91611126C030953E233C938FBF0895DA
:100170002730A9F02830C9F0243049F78091800059
:100180008F7D03C0809180008F7780938000DFCFC8
:1001900084B58F7784BDDBCF84B58F7DFBCF809115
:1001A000B0008F778093B000D2CF8091B0008F7D68
:1001B000F9CF3E2BDACF1F920F920FB60F92112478
:1001C0002F933F938F939F93AF93BF93809105019C
:1001D00090910601A0910701B091080130910401AE
:1001E00023E0230F2D3758F50196A11DB11D209353
:1001F00004018093050190930601A0930701B09339
:1002000008018091000190910101A0910201B0913B
:1002100003010196A11DB11D80930001909301017E
:10022000A0930201B0930301BF91AF919F918F9171
:100230003F912F910F900FBE0F901F90189526E8B9
:10024000230F0296A11DB11DD2CF789484B5826090
:1002500084BD84B5816084BD85B5826085BD85B56A
:10026000816085BD80916E00816080936E001092E8
:100270008100809181008260809381008091810063
:1002800081608093810080918000816080938000F4
:100290008091B10084608093B1008091B000816052
:1002A0008093B00080917A00846080937A0080917E
:1002B0007A00826080937A0080917A0081608093D6
:1002C0007A0080917A00806880937A001092C10051
:1002D0008BE00E94700089E00E9470008AE00E941A
:1002E000700083E00E9470004BE3E42EFF24F3943F
:1002F00053E0C52ED12C6BE2A62EBB24B39460E054
:100300008AE00E948F0060E089E00E948F0061E037
:1003100083E00E948F0061E08BE00E948F0060E02C
:100320008BE00E948F0061E08AE00E948F00C7018D
:100330000197F1F760E08AE00E948F0061E08BE0B6
:100340000E948F00C6010197F1F760E08BE00E94E8
:100350008F0061E08AE00E948F00C5010197F1F7EC
:1003600060E08AE00E948F0061E08BE00E948F00D5
:1003700083E190E00197F1F760E08BE00E948F004D
:1003800061E08AE00E948F0083E291E00197F1F73B
:1003900060E08AE00E948F0061E08BE00E948F00A5
:1003A0008BE190E00197F1F760E08BE00E948F0015
:1003B00061E08AE00E948F0083E191E00197F1F70C
:1003C00060E08AE00E948F0061E08BE00E948F0075
:1003D0008BE290E00197F1F760E08BE00E948F00E4
:1003E00061E08AE00E948F008BE091E00197F1F7D5
:1003F00060E08AE00E948F0061E08BE00E948F0045
:1004000083E390E00197F1F760E08BE00E948F00BA
:1004100061E08AE00E948F008BEF90E00197F1F796
:1004200060E08AE00E948F0061E08BE00E948F0014
:100430008FE390E00197F1F760E08BE00E948F007E
:1004400061E08AE00E948F0083EF90E00197F1F76E
:1004500060E08AE00E948F0061E08BE00E948F00E4
:100460008BE4882E912CC4010197F1F760E08BE0BA
:100470000E948F0061E08AE00E948F0087EE90E08A
:100480000197F1F760E08AE00E948F0061E08BE065
:100490000E948F0087E590E00197F1F760E08BE024
:1004A0000E948F0061E08AE00E948F008BED90E057
:1004B0000197F1F760E08AE00E948F0061E08BE035
:1004C0000E948F0083E690E00197F1F760E08BE0F7
:1004D0000E948F0061E08AE00E948F008FEC90E024
:1004E0000197F1F760E08AE00E948F0061E08BE005
:1004F0000E948F008FE690E00197F1F760E08BE0BB
:100500000E948F0061E08AE00E948F0083EC90E0FF
:100510000197F1F760E08AE00E948F0061E08BE0D4
:100520000E948F008BE790E00197F1F760E08BE08D
:100530000E948F0061E08AE00E948F0087EB90E0CC
:100540000197F1F760E08AE00E948F0061E08BE0A4
:100550000E948F0083E890E00197F1F760E08BE064
:100560000E948F0061E08AE00E948F008BEA90E099
:100570000197F1F760E08AE00E948F0061E08BE074
:100580000E948F008FE890E00197F1F760E08BE028
:100590000E948F0061E08AE00E948F0083EA90E071
:1005A0000197F1F760E08AE00E948F0061E08BE044
:1005B0000E948F008BE990E00197F1F760E08BE0FB
:1005C0000E948F0061E08AE00E948F0087E990E03E
:1005D0000197F1F760E08AE00E948F0061E08BE014
:1005E0000E948F0083EA90E00197F1F760E08BE0D2
:1005F0000E948F0061E08AE00E948F008FE890E007
:100600000197F1F760E08AE00E948F0061E08BE0E3
:100610000E948F008FEA90E00197F1F760E08BE095
:100620000E948F0061E08AE00E948F0083E890E0E2
:100630000197F1F760E08AE00E948F0061E08BE0B3
:100640000E948F0087EB90E00197F1F760E08BE06C
:100650000E948F0061E08AE00E948F008BE790E0AB
:100660000197F1F760E08AE00E948F0061E08BE083
:100670000E948F0083EC90E00197F1F760E08BE03F
:100680000E948F0061E08AE00E948F008FE690E078
:100690000197F1F760E08AE00E948F0061E08BE053
:1006A0000E948F008BEC90E00197F1F760E08BE007
:1006B0000E948F0061E08AE00E948F0087E690E050
:1006C0000197F1F760E08AE00E948F0061E08BE023
:1006D0000E948F0083ED90E00197F1F760E08BE0DE
:1006E0000E948F0061E08AE00E948F008FE590E019
:1006F0000197F1F760E08AE00E948F0061E08BE0F3
:100700000E948F008BED90E00197F1F760E08BE0A5
:100710000E948F0061E08AE00E948F0087E590E0F0
:100720000197F1F760E08AE00E948F0061E08BE0C2
:100730000E948F0083EE90E00197F1F760E08BE07C
:100740000E948F0061E08AE00E948F00C40101973F
:10075000F1F760E08AE00E948F0061E08BE00E9488
:100760008F008BEE90E00197F1F760E08BE00E9444
:100770008F0061E08AE00E948F0083E490E001979F
:10078000F1F760E08AE00E948F0061E08BE00E9458
:100790008F0083EF90E00197F1F760E08BE00E941B
:1007A0008F0061E08AE00E948F008FE390E0019764
:1007B000F1F760E08AE00E948F0061E08BE00E9428
:1007C0008F008BEF90E00197F1F760E08BE00E94E3
:1007D0008F0061E08AE00E948F0087E390E001973C
:1007E000F1F760E08AE00E948F0061E08BE00E94F8
:1007F0008F0083E091E00197F1F760E08BE00E94C9
:100800008F0061E08AE00E948F008FE290E0019704
:10081000F1F760E08AE00E948F0061E08BE00E94C7
:100820008F008BE091E00197F1F760E08BE00E9490
:100830008F0061E08AE00E948F008BE290E00197D8
:10084000F1F760E08AE00E948F0061E08BE00E9497
:100850008F008FE091E00197F1F760E08BE00E945C
:100860008F0061E08AE00E948F0083E290E00197B0
:10087000F1F760E08AE00E948F0061E08BE00E9467
:100880008F0083E191E00197F1F760E08BE00E9437
:100890008F0061E08AE00E948F008BE190E0019779
:1008A000F1F760E08AE00E948F0061E08BE00E9437
:1008B0008F009BE1692E77247394C3010197F1F7B0
:1008C00060E08BE00E948F0061E08AE00E948F0070
:1008D00087E190E00197F1F760E08AE00E948F00E5
:1008E00061E08BE00E948F008FE191E00197F1F7CA
:1008F00060E08BE00E948F0061E08AE00E948F0040
:1009000083E190E00197F1F760E08AE00E948F00B8
:1009100061E08BE00E948F0083E291E00197F1F7A4
:1009200060E08BE00E948F0061E08AE00E948F000F
:100930008FE090E00197F1F760E08AE00E948F007D
:1009400061E08BE00E948F0027E2222E3324339453
:10095000C1010197F1F760E08BE00E948F0061E038
:100960008AE00E948F003BE0432E512CC201019788
:10097000F1F760E08AE00E948F0061E08BE00E9466
:100980008F00C5010197F1F760E08BE00E948F00B6
:1009900061E08AE00E948F0087E090E00197F1F724
:1009A00060E08AE00E948F0061E08BE00E948F008F
:1009B0008FE291E00197F1F760E08BE00E948F00F9
:1009C00061E08AE00E948F00C6010197F1F760E0C4
:1009D0008AE00E948F0061E08BE00E948F0003E3B9
:1009E00011E0C8010197F1F760E08BE00E948F00F1
:1009F00061E08AE00E948F0060E08AE00E948F0040
:100A000061E08BE00E948F00C8010197F1F760E080
:100A10008BE00E948F0061E08AE00E948F0060E01E
:100A20008AE00E948F0061E08BE00E948F00C7E3A4
:100A3000D1E0CE010197F1F760E08BE00E948F00DA
:100A400061E08AE00E948F0060E08AE00E948F00EF
:100A500061E08BE00E948F00CE010197F1F760E02A
:100A60008BE00E948F0061E08AE00E948F0060E0CE
:100A70008AE00E948F0061E08BE00E948F00CE012F
:100A80000197F1F760E08BE00E948F0061E08AE05F
:100A90000E948F0060E08AE00E948F0061E08BE09E
:100AA0000E948F00C7010197F1F760E08BE00E9480
:100AB0008F0061E08AE00E948F0060E08AE00E947F
:100AC0008F0061E08BE00E948F00C7010197F1F772
:100AD00060E08BE00E948F0061E08AE00E948F005E
:100AE00060E08AE00E948F0061E08BE00E948F004E
:100AF000CE010197F1F760E08BE00E948F0061E08A
:100B00008AE00E948F0060E08AE00E948F0061E02E
:100B10008BE00E948F00CE010197F1F760E08BE03F
:100B20000E948F0061E08AE00E948F0060E08AE00E
:100B30000E948F0061E08BE00E948F00CE01019740
:100B4000F1F760E08BE00E948F0061E08AE00E9494
:100B50008F0060E08AE00E948F0061E08BE00E94DD
:100B60008F00C8010197F1F760E08BE00E948F00D1
:100B700061E08AE00E948F0060E08AE00E948F00BE
:100B800061E08BE00E948F00C8010197F1F760E0FF
:100B90008BE00E948F0061E08AE00E948F0060E09D
:100BA0008AE00E948F0061E08BE00E948F008FE25C
:100BB00091E00197F1F760E08BE00E948F0061E027
:100BC0008AE00E948F00C6010197F1F760E08AE099
:100BD0000E948F0061E08BE00E948F00C5010197A9
:100BE000F1F760E08BE00E948F0061E08AE00E94F4
:100BF0008F00C6010197F1F760E08AE00E948F0044
:100C000061E08BE00E948F00C5010197F1F760E081
:100C10008BE00E948F0061E08AE00E948F0087E0F5
:100C200090E00197F1F760E08AE00E948F0061E0B8
:100C30008BE00E948F00C1010197F1F760E08BE02B
:100C40000E948F0061E08AE00E948F00C20101973C
:100C5000F1F760E08AE00E948F0061E08BE00E9483
:100C60008F0083E291E00197F1F760E08BE00E9452
:100C70008F0061E08AE00E948F008FE090E0019792
:100C8000F1F760E08AE00E948F0061E08BE00E9453
:100C90008F00C3010197F1F760E08BE00E948F00A5
:100CA00061E08AE00E948F0083E190E00197F1F714
:100CB00060E08AE00E948F0061E08BE00E948F007C
:100CC00087E191E00197F1F760E08BE00E948F00EF
:100CD00061E08AE00E948F008BE190E00197F1F7DC
:100CE00060E08AE00E948F0061E08BE00E948F004C
:100CF00083E191E00197F1F760E08BE00E948F00C3
:100D000061E08AE00E948F008FE190E00197F1F7A7
:100D100060E08AE00E948F0061E08BE00E948F001B
:100D20008BE091E00197F1F760E08BE00E948F008B
:100D300061E08AE00E948F0087E290E00197F1F77E
:100D400060E08AE00E948F0061E08BE00E948F00EB
:100D500087E091E00197F1F760E08BE00E948F005F
:100D600061E08AE00E948F008BE290E00197F1F74A
:100D700060E08AE00E948F0061E08BE00E948F00BB
:100D80008FEF90E00197F1F760E08BE00E948F0019
:100D900061E08AE00E948F0083E390E00197F1F721
:100DA00060E08AE00E948F0061E08BE00E948F008B
:100DB00087EF90E00197F1F760E08BE00E948F00F1
:100DC00061E08AE00E948F008BE390E00197F1F7E9
:100DD00060E08AE00E948F0061E08BE00E948F005B
:100DE0008FEE90E00197F1F760E08BE00E948F00BA
:100DF00061E08AE00E948F0083E490E00197F1F7C0
:100E000060E08AE00E948F0061E08BE00E948F002A
:100E100087EE90E00197F1F760E08BE00E948F0091
:100E200061E08AE00E948F00C4010197F1F760E061
:100E30008AE00E948F0061E08BE00E948F008FEDBE
:100E400090E00197F1F760E08BE00E948F0061E095
:100E50008AE00E948F0083E590E00197F1F760E05F
:100E60008AE00E948F0061E08BE00E948F0087ED96
:100E700090E00197F1F760E08BE00E948F0061E065
:100E80008AE00E948F008BE590E00197F1F760E027
:100E90008AE00E948F0061E08BE00E948F008FEC5F
:100EA00090E00197F1F760E08BE00E948F0061E035
:100EB0008AE00E948F0083E690E00197F1F760E0FE
:100EC0008AE00E948F0061E08BE00E948F0087EC37
:100ED00090E00197F1F760E08BE00E948F0061E005
:100EE0008AE00E948F008BE690E00197F1F760E0C6
:100EF0008AE00E948F0061E08BE00E948F008BEB04
:100F000090E00197F1F760E08BE00E948F0061E0D4
:100F10008AE00E948F0083E790E00197F1F760E09C
:100F20008AE00E948F0061E08BE00E948F0083EBDB
:100F300090E00197F1F760E08BE00E948F0061E0A4
:100F40008AE00E948F008FE790E00197F1F760E060
:100F50008AE00E948F0061E08BE00E948F008BEAA4
:100F600090E00197F1F760E08BE00E948F0061E074
:100F70008AE00E948F0087E890E00197F1F760E037
:100F80008AE00E948F0061E08BE00E948F008FE971
:100F900090E00197F1F760E08BE00E948F0061E044
:100FA0008AE00E948F0083E990E00197F1F760E00A
:100FB0008AE00E948F0061E08BE00E948F008BE846
:100FC00090E00197F1F760E08BE00E948F0061E014
:100FD0008AE00E948F0087EA90E00197F1F760E0D5
:100FE0008AE00E948F0061E08BE00E948F008FE713
:100FF00090E00197F1F760E08BE00E948F0061E0E4
:101000008AE00E948F0083EB90E00197F1F760E0A7
:101010008AE00E948F0061E08BE00E948F0083E7EE
:1010200090E00197F1F760E08BE00E948F0061E0B3
:101030008AE00E948F008FEB90E00197F1F760E06B
:101040008AE00E948F0061E08BE00E948F008BE6B7
:1010500090E00197F1F760E08BE00E948F0061E083
:101060008AE00E948F008BEC90E00197F1F760E03E
:101070008AE00E948F0061E08BE00E948F008FE584
:1010800090E00197F1F760E08BE00E948F0061E053
:101090008AE00E948F0083ED90E00197F1F760E015
:1010A0008AE00E948F0061E08BE00E948F0083E560
:1010B00090E00197F1F760E08BE00E948F0061E023
:1010C0008AE00E948F008FED90E00197F1F760E0D9
:1010D0008AE00E948F0061E08BE00E948F0087E42D
:1010E00090E00197F1F760E08BE00E948F0061E0F3
:1010F0008AE00E948F008BEE90E00197F1F760E0AC
:101100008AE00E948F0061E08BE00E948F008BE3F9
:1011100090E00197F1F760E08BE00E948F0061E0C2
:101120008AE00E948F0087EF90E00197F1F760E07E
:101130008AE00E948F0061E08BE00E948F008FE2C6
:1011400090E00197F1F760E08BE00E948F0061E092
:101150008AE00E948F0083E091E00197F1F760E060
:101160008AE00E948F0061E08BE00E948F0083E2A2
:1011700090E00197F1F760E08BE00E948F0061E062
:101180008AE00E948F008FE091E00197F1F760E024
:101190008AE00E948F0061E08BE00E948F0087E16F
:1011A00090E00197F1F760E08BE00E948F0061E032
:1011B0008AE00E948F00C3010197F1F760E08AE0A6
:1011C0000E948F0061E08BE00E948F00C2010197B6
:1011D000F1F760E08BE00E948F0061E08AE00E94FE
:1011E0008F00C1010197F1F760E08AE00E948F0053
:1011F00061E08BE00E948F0060E08BE00E948F0036
:1012000061E08AE00E948F00C8010197F1F760E079
:101210008AE00E948F0061E08BE00E948F0060E016
:101220008BE00E948F0061E08AE00E948F00C7017E
:101230000197F1F760E08BE00E948F0060E089E0A9
:101240000E948F0060E083E00E948F0061E08AE0EE
:101250000E948F0060E083E00E948F0060E08BE0DE
:101260000E948F0061E08AE00E948F0061E089E0C7
:101270000E948F0060E089E00E948F0061E083E0BF
:101280000E948F00C7010197F1F760E083E00E94A0
:101290008F0061E089E00E948F00C6010197F1F79D
:1012A00060E089E00E948F0061E083E00E948F008F
:1012B000C5010197F1F760E083E00E948F0061E0D3
:1012C00089E00E948F0083E190E00197F1F760E0F0
:1012D00089E00E948F0061E083E00E948F0083E23A
:1012E00091E00197F1F760E083E00E948F0061E0F8
:1012F00089E00E948F008BE190E00197F1F760E0B8
:1013000089E00E948F0061E083E00E948F0083E10A
:1013100091E00197F1F760E083E00E948F0061E0C7
:1013200089E00E948F008BE290E00197F1F760E086
:1013300089E00E948F0061E083E00E948F008BE0D3
:1013400091E00197F1F760E083E00E948F0061E097
:1013500089E00E948F0083E390E00197F1F760E05D
:1013600089E00E948F0061E083E00E948F008BEF94
:1013700090E00197F1F760E083E00E948F0061E068
:1013800089E00E948F008FE390E00197F1F760E021
:1013900089E00E948F0061E083E00E948F0083EF6C
:1013A00090E00197F1F760E083E00E948F0061E038
:1013B00089E00E948F00C4010197F1F760E089E0A5
:1013C0000E948F0061E083E00E948F0087EE90E032
:1013D0000197F1F760E083E00E948F0061E089E00F
:1013E0000E948F0087E590E00197F1F760E089E0C7
:1013F0000E948F0061E083E00E948F008BED90E0FF
:101400000197F1F760E083E00E948F0061E089E0DE
:101410000E948F0083E690E00197F1F760E089E099
:101420000E948F0061E083E00E948F008FEC90E0CB
:101430000197F1F760E083E00E948F0061E089E0AE
:101440000E948F008FE690E00197F1F760E089E05D
:101450000E948F0061E083E00E948F0083EC90E0A7
:101460000197F1F760E083E00E948F0061E089E07E
:101470000E948F008BE790E00197F1F760E089E030
:101480000E948F0061E083E00E948F0087EB90E074
:101490000197F1F760E083E00E948F0061E089E04E
:1014A0000E948F0083E890E00197F1F760E089E007
:1014B0000E948F0061E083E00E948F008BEA90E041
:1014C0000197F1F760E083E00E948F0061E089E01E
:1014D0000E948F008FE890E00197F1F760E089E0CB
:1014E0000E948F0061E083E00E948F0083EA90E019
:1014F0000197F1F760E083E00E948F0061E089E0EE
:101500000E948F008BE990E00197F1F760E089E09D
:101510000E948F0061E083E00E948F0087E990E0E5
:101520000197F1F760E083E00E948F0061E089E0BD
:101530000E948F0083EA90E00197F1F760E089E074
:101540000E948F0061E083E00E948F008FE890E0AE
:101550000197F1F760E083E00E948F0061E089E08D
:101560000E948F008FEA90E00197F1F760E089E038
:101570000E948F0061E083E00E948F0083E890E08A
:101580000197F1F760E083E00E948F0061E089E05D
:101590000E948F0087EB90E00197F1F760E089E00F
:1015A0000E948F0061E083E00E948F008BE790E053
:1015B0000197F1F760E083E00E948F0061E089E02D
:1015C0000E948F0083EC90E00197F1F760E089E0E2
:1015D0000E948F0061E083E00E948F008FE690E020
:1015E0000197F1F760E083E00E948F0061E089E0FD
:1015F0000E948F008BEC90E00197F1F760E089E0AA
:101600000E948F0061E083E00E948F0087E690E0F7
:101610000197F1F760E083E00E948F0061E089E0CC
:101620000E948F0083ED90E00197F1F760E089E080
:101630000E948F0061E083E00E948F008FE590E0C0
:101640000197F1F760E083E00E948F0061E089E09C
:101650000E948F008BED90E00197F1F760E089E048
:101660000E948F0061E083E00E948F0087E590E098
:101670000197F1F760E083E00E948F0061E089E06C
:101680000E948F0083EE90E00197F1F760E089E01F
:101690000E948F0061E083E00E948F00C4010197E7
:1016A000F1F760E083E00E948F0061E089E00E9432
:1016B0008F008BEE90E00197F1F760E089E00E94E7
:1016C0008F0061E083E00E948F0083E490E0019747
:1016D000F1F760E083E00E948F0061E089E00E9402
:1016E0008F0083EF90E00197F1F760E089E00E94BE
:1016F0008F0061E083E00E948F008FE390E001970C
:10170000F1F760E083E00E948F0061E089E00E94D1
:101710008F008BEF90E00197F1F760E089E00E9485
:101720008F0061E083E00E948F0087E390E00197E3
:10173000F1F760E083E00E948F0061E089E00E94A1
:101740008F0083E091E00197F1F760E089E00E946B
:101750008F0061E083E00E948F008FE290E00197AC
:10176000F1F760E083E00E948F0061E089E00E9471
:101770008F008BE091E00197F1F760E089E00E9433
:101780008F0061E083E00E948F008BE290E0019780
:10179000F1F760E083E00E948F0061E089E00E9441
:1017A0008F008FE091E00197F1F760E089E00E94FF
:1017B0008F0061E083E00E948F0083E290E0019758
:1017C000F1F760E083E00E948F0061E089E00E9411
:1017D0008F0083E191E00197F1F760E089E00E94DA
:1017E0008F0061E083E00E948F008BE190E0019721
:1017F000F1F760E083E00E948F0061E089E00E94E1
:101800008F00C3010197F1F760E089E00E948F002B
:1018100061E083E00E948F0087E190E00197F1F79B
:1018200060E083E00E948F0061E089E00E948F0009
:101830008FE191E00197F1F760E089E00E948F006D
:1018400061E083E00E948F0083E190E00197F1F76F
:1018500060E083E00E948F0061E089E00E948F00D9
:1018600083E291E00197F1F760E089E00E948F0048
:1018700061E083E00E948F008FE090E00197F1F734
:1018800060E083E00E948F0061E089E00E948F00A9
:10189000C1010197F1F760E089E00E948F0061E0EB
:1018A00083E00E948F00C2010197F1F760E083E0BE
:1018B0000E948F0061E089E00E948F00C5010197BE
:1018C000F1F760E089E00E948F0061E083E00E9410
:1018D0008F0087E090E00197F1F760E083E00E94DD
:1018E0008F0061E089E00E948F008FE291E0019714
:1018F000F1F760E089E00E948F0061E083E00E94E0
:101900008F00C6010197F1F760E083E00E948F002D
:1019100061E089E00E948F00C8010197F1F760E063
:1019200089E00E948F0061E083E00E948F0060E008
:1019300083E00E948F0061E089E00E948F00C8016F
:101940000197F1F760E089E00E948F0061E083E099
:101950000E948F0060E083E00E948F0061E089E0D8
:101960000E948F00CE010197F1F760E089E00E94AC
:101970008F0061E083E00E948F0060E083E00E94BE
:101980008F0061E089E00E948F00CE010197F1F79E
:1019900060E089E00E948F0061E083E00E948F0098
:1019A00060E083E00E948F0061E089E00E948F0088
:1019B000CE010197F1F760E089E00E948F0061E0BD
:1019C00083E00E948F0060E083E00E948F0061E06E
:1019D00089E00E948F00C7010197F1F760E089E07C
:1019E0000E948F0061E083E00E948F0060E083E04E
:1019F0000E948F0061E089E00E948F00C70101977B
:101A0000F1F760E089E00E948F0061E083E00E94CE
:101A10008F0060E083E00E948F0061E089E00E9417
:101A20008F00CE010197F1F760E089E00E948F00FE
:101A300061E083E00E948F0060E083E00E948F00FD
:101A400061E089E00E948F00CE010197F1F760E02C
:101A500089E00E948F0061E083E00E948F0060E0D7
:101A600083E00E948F0061E089E00E948F0021974F
:101A7000F1F760E089E00E948F0061E083E00E945E
:101A80008F0060E083E00E948F0061E089E00E94A7
:101A90008F00C8010197F1F760E089E00E948F0094
:101AA00061E083E00E948F0060E083E00E948F008D
:101AB00061E089E00E948F00C8010197F1F760E0C2
:101AC00089E00E948F0061E083E00E948F0060E067
:101AD00083E00E948F0061E089E00E948F008FE226
:101AE00091E00197F1F760E089E00E948F0061E0EA
:101AF00083E00E948F00C6010197F1F760E083E068
:101B00000E948F0061E089E00E948F00C50101976B
:101B1000F1F760E089E00E948F0061E083E00E94BD
:101B20008F00C6010197F1F760E083E00E948F000B
:101B300061E089E00E948F00C5010197F1F760E044
:101B400089E00E948F0061E083E00E948F0087E0BF
:101B500090E00197F1F760E083E00E948F0061E080
:101B600089E00E948F00C1010197F1F760E089E0F0
:101B70000E948F0061E083E00E948F00C201019704
:101B8000F1F760E083E00E948F0061E089E00E944D
:101B90008F0083E291E00197F1F760E089E00E9415
:101BA0008F0061E083E00E948F008FE090E001975A
:101BB000F1F760E083E00E948F0061E089E00E941D
:101BC0008F00C3010197F1F760E089E00E948F0068
:101BD00061E083E00E948F0083E190E00197F1F7DC
:101BE00060E083E00E948F0061E089E00E948F0046
:101BF00087E191E00197F1F760E089E00E948F00B2
:101C000061E083E00E948F008BE190E00197F1F7A3
:101C100060E083E00E948F0061E089E00E948F0015
:101C200083E191E00197F1F760E089E00E948F0085
:101C300061E083E00E948F008FE190E00197F1F76F
:101C400060E083E00E948F0061E089E00E948F00E5
:101C50008BE091E00197F1F760E089E00E948F004E
:101C600061E083E00E948F0087E290E00197F1F746
:101C700060E083E00E948F0061E089E00E948F00B5
:101C800087E091E00197F1F760E089E00E948F0022
:101C900061E083E00E948F008BE290E00197F1F712
:101CA00060E083E00E948F0061E089E00E948F0085
:101CB0008FEF90E00197F1F760E089E00E948F00DC
:101CC00061E083E00E948F0083E390E00197F1F7E9
:101CD00060E083E00E948F0061E089E00E948F0055
:101CE00087EF90E00197F1F760E089E00E948F00B4
:101CF00061E083E00E948F008BE390E00197F1F7B1
:101D000060E083E00E948F0061E089E00E948F0024
:101D10008FEE90E00197F1F760E089E00E948F007C
:101D200061E083E00E948F0083E490E00197F1F787
:101D300060E083E00E948F0061E089E00E948F00F4
:101D400087EE90E00197F1F760E089E00E948F0054
:101D500061E083E00E948F00C4010197F1F760E029
:101D600083E00E948F0061E089E00E948F008FED88
:101D700090E00197F1F760E089E00E948F0061E058
:101D800083E00E948F0083E590E00197F1F760E027
:101D900083E00E948F0061E089E00E948F0087ED60
:101DA00090E00197F1F760E089E00E948F0061E028
:101DB00083E00E948F008BE590E00197F1F760E0EF
:101DC00083E00E948F0061E089E00E948F008FEC29
:101DD00090E00197F1F760E089E00E948F0061E0F8
:101DE00083E00E948F0083E690E00197F1F760E0C6
:101DF00083E00E948F0061E089E00E948F0087EC01
:101E000090E00197F1F760E089E00E948F0061E0C7
:101E100083E00E948F008BE690E00197F1F760E08D
:101E200083E00E948F0061E089E00E948F008BEBCD
:101E300090E00197F1F760E089E00E948F0061E097
:101E400083E00E948F0083E790E00197F1F760E064
:101E500083E00E948F0061E089E00E948F0083EBA5
:101E600090E00197F1F760E089E00E948F0061E067
:101E700083E00E948F008FE790E00197F1F760E028
:101E800083E00E948F0061E089E00E948F008BEA6E
:101E900090E00197F1F760E089E00E948F0061E037
:101EA00083E00E948F0087E890E00197F1F760E0FF
:101EB00083E00E948F0061E089E00E948F008FE93B
:101EC00090E00197F1F760E089E00E948F0061E007
:101ED00083E00E948F0083E990E00197F1F760E0D2
:101EE00083E00E948F0061E089E00E948F008BE810
:101EF00090E00197F1F760E089E00E948F0061E0D7
:101F000083E00E948F0087EA90E00197F1F760E09C
:101F100083E00E948F0061E089E00E948F008FE7DC
:101F200090E00197F1F760E089E00E948F0061E0A6
:101F300083E00E948F0083EB90E00197F1F760E06F
:101F400083E00E948F0061E089E00E948F0083E7B8
:101F500090E00197F1F760E089E00E948F0061E076
:101F600083E00E948F008FEB90E00197F1F760E033
:101F700083E00E948F0061E089E00E948F008BE681
:101F800090E00197F1F760E089E00E948F0061E046
:101F900083E00E948F008BEC90E00197F1F760E006
:101FA00083E00E948F0061E089E00E948F008FE54E
:101FB00090E00197F1F760E089E00E948F0061E016
:101FC00083E00E948F0083ED90E00197F1F760E0DD
:101FD00083E00E948F0061E089E00E948F0083E52A
:101FE00090E00197F1F760E089E00E948F0061E0E6
:101FF00083E00E948F008FED90E00197F1F760E0A1
:1020000083E00E948F0061E089E00E948F0087E4F6
:1020100090E00197F1F760E089E00E948F0061E0B5
:1020200083E00E948F008BEE90E00197F1F760E073
:1020300083E00E948F0061E089E00E948F008BE3C3
:1020400090E00197F1F760E089E00E948F0061E085
:1020500083E00E948F0087EF90E00197F1F760E046
:1020600083E00E948F0061E089E00E948F008FE290
:1020700090E00197F1F760E089E00E948F0061E055
:1020800083E00E948F0083E091E00197F1F760E028
:1020900083E00E948F0061E089E00E948F0083E26C
:1020A00090E00197F1F760E089E00E948F0061E025
:1020B00083E00E948F008FE091E00197F1F760E0EC
:1020C00083E00E948F0061E089E00E948F0087E139
:1020D00090E00197F1F760E089E00E948F0061E0F5
:1020E00083E00E948F00C3010197F1F760E083E075
:1020F0000E948F0061E089E00E948F00C201019779
:10210000F1F760E089E00E948F0061E083E00E94C7
:102110008F00C1010197F1F760E083E00E948F001A
:1021200061E089E00E948F0060E089E00E948F00FA
:1021300061E083E00E948F00C8010197F1F760E041
:1021400083E00E948F0061E089E00E948F0060E0E0
:1021500089E00E948F0061E083E00E948F00C70148
:102160000197F1F760E08BE00E948F0060E089E06A
:102170000E948F0060E08AE00E948F0061E083E0AF
:102180000E948F0080E090E0892B11F40C947F0175
:0C2190000E9400000C947F01F894FFCF27
:107E0000112484B714BE81FFF0D085E080938100F7
:107E100082E08093C00088E18093C10086E0809377
:107E2000C20080E18093C4008EE0C9D0259A86E02C
:107E300020E33CEF91E0309385002093840096BBD3
:107E4000B09BFECF1D9AA8958150A9F7CC24DD24C4
:107E500088248394B5E0AB2EA1E19A2EF3E0BF2EE7
:107E6000A2D0813461F49FD0082FAFD0023811F036
:107E7000013811F484E001C083E08DD089C08234E0
:107E800011F484E103C0853419F485E0A6D080C0E4
:107E9000853579F488D0E82EFF2485D0082F10E0AE
:107EA000102F00270E291F29000F111F8ED06801E7
:107EB0006FC0863521F484E090D080E0DECF843638
:107EC00009F040C070D06FD0082F6DD080E0C81688
:107ED00080E7D80618F4F601B7BEE895C0E0D1E017
:107EE00062D089930C17E1F7F0E0CF16F0E7DF06D8
:107EF00018F0F601B7BEE89568D007B600FCFDCFD4
:107F0000A601A0E0B1E02C9130E011968C91119780
:107F100090E0982F8827822B932B1296FA010C0160
:107F200087BEE89511244E5F5F4FF1E0A038BF0790
:107F300051F7F601A7BEE89507B600FCFDCF97BE46
:107F4000E89526C08437B1F42ED02DD0F82E2BD052
:107F50003CD0F601EF2C8F010F5F1F4F84911BD097
:107F6000EA94F801C1F70894C11CD11CFA94CF0C13
:107F7000D11C0EC0853739F428D08EE10CD085E9AC
:107F80000AD08FE07ACF813511F488E018D01DD067
:107F900080E101D065CF982F8091C00085FFFCCF94
:107FA0009093C60008958091C00087FFFCCF809118
:107FB000C00084FD01C0A8958091C6000895E0E648
:107FC000F0E098E1908380830895EDDF803219F02E
:107FD00088E0F5DFFFCF84E1DECF1F93182FE3DFCA
:107FE0001150E9F7F2DF1F91089580E0E8DFEE27F6
:047FF000FF270994CA
:027FFE00040479
:00000001FF
